:100000000C9465000C948D000C948D000C948D0064
:100010000C948D000C948D000C948D000C948D002C
:100020000C948D000C948D000C948D000C948D001C
:100030000C948D000C948D000C948D000C948D000C
:100040000C9429100C948D000C94F70F0C94D10F84
:100050000C948D000C948D000C948D000C948D00EC
:100060000C948D000C948D007C3C3E5E2B3D3F2F0C
:100070005B5D3B2C2A225C000000000800020100AE
:100080000003040700000000000000000000000062
:10009000250028002B0000000000240027002A0073
:1000A000040404040404040402020202020203031E
:1000B0000303030301020408102040800102040826
:1000C0001020010204081020731011241FBECFEF6E
:1000D000D8E0DEBFCDBF24E0ACE9B1E001C01D92A5
:1000E000AD39B207E1F711E0A0E0B1E0E8ECFCE2E5
:1000F00002C005900D92AC39B107D9F710E0C5E602
:10010000D0E004C02197FE010E944E14C436D107EE
:10011000C9F70E94BB100C9462160C94000090E08A
:10012000FC01EC54FF4F249180569F4FFC018491B9
:10013000882399F090E0880F991FFC01EA56FF4F41
:10014000A591B491FC01E457FF4F859194918FB72D
:10015000F894EC91E22BEC938FBF0895AF92BF928D
:10016000CF92DF92EF92FF920F931F93CF93DF9383
:100170006C017B018B01040F151FEB015E01AE18B2
:10018000BF08C017D10759F06991D601ED91FC91D4
:100190000190F081E02DC6010995892B79F7C50101
:1001A000DF91CF911F910F91FF90EF90DF90CF9053
:1001B000BF90AF900895FC01538D448D252F30E002
:1001C000842F90E0821B930B541710F0CF96089564
:1001D00001970895FC01918D828D981761F0A28D91
:1001E000AE0FBF2FB11D5D968C91928D9F5F9F7357
:1001F000928F90E008958FEF9FEF0895FC01918D0D
:10020000828D981731F0828DE80FF11D858D90E079
:1002100008958FEF9FEF0895FC01918D228D892F16
:1002200090E0805C9F4F821B91098F7399270895FE
:1002300081EB93E00E940C0121E0892B09F420E07E
:10024000822F089580E090E0892B29F00E94180108
:1002500081110C9400000895FC01A48DA80FB92F02
:10026000B11DA35ABF4F2C91848D90E001968F73DE
:100270009927848FA689B7892C93A089B1898C91FD
:10028000837080648C93938D848D981306C002884C
:10029000F389E02D80818F7D80830895EF92FF9216
:1002A0000F931F93CF93DF93EC0181E0888F9B8D99
:1002B0008C8D98131AC0E889F989808185FF15C053
:1002C0009FB7F894EE89FF896083E889F989808176
:1002D0008370806480839FBF81E090E0DF91CF9145
:1002E0001F910F91FF90EF900895F62E0B8D10E067
:1002F0000F5F1F4F0F731127E02E8C8D8E110CC0D6
:100300000FB607FCFACFE889F989808185FFF5CF20
:10031000CE010E942C01F1CFEB8DEC0FFD2FF11DD2
:10032000E35AFF4FF0829FB7F8940B8FEA89FB895D
:1003300080818062CFCFCF93DF93EC01888D8823BB
:10034000B9F0AA89BB89E889F9898C9185FD03C038
:10035000808186FD0DC00FB607FCF7CF8C9185FF1D
:10036000F2CF808185FFEDCFCE010E942C01E9CF35
:10037000DF91CF91089590E0FC01E858FF4F249160
:10038000FC01EC54FF4F3491FC01E056FF4FE49127
:10039000EE23C9F0222339F0233001F1A8F42130F3
:1003A00019F1223029F1F0E0EE0FFF1FE457FF4F63
:1003B000A591B4918FB7F894EC91611126C0309556
:1003C0003E233C938FBF08952730A9F02830C9F011
:1003D000243049F7809180008F7D03C08091800098
:1003E0008F7780938000DFCF84B58F7784BDDBCF9C
:1003F00084B58F7DFBCF8091B0008F778093B00064
:10040000D2CF8091B0008F7DF9CF3E2BDACF3FB7AE
:10041000F8948091A8019091A901A091AA01B091AE
:10042000AB0126B5A89B05C02F3F19F00196A11D71
:10043000B11D3FBFBA2FA92F982F8827BC01CD012E
:10044000620F711D811D911D42E0660F771F881F8D
:10045000991F4A95D1F708952FB7F8946091A40198
:100460007091A5018091A6019091A7012FBF0895D9
:100470008FB7F89480919D018FBF089561E0FC01D2
:1004800084810E94BB0180919C01811110929C018A
:1004900008958EBD00000DB407FEFDCF8EB5089502
:1004A0008FEF0C9449020F931F93CF93DF93EC01CE
:1004B0000E942C028B010E9450028F3F69F00E9423
:1004C0002C02601B710B6C177D07A8F380E0DF9195
:1004D000CF911F910F91089581E0F9CF8CBD9DBD03
:1004E0000895CF93DF93EC0180919C01811109C0A5
:1004F00081E080939C0180914E0490914F040E9472
:100500006E0260E08C81DF91CF910C94BB018F92E1
:100510009F92AF92BF92FF920F931F93CF93DF935F
:10052000EC01F62E49015A018E81882389F08F81D2
:1005300098859C012F5F3F4F38872F8382309240F0
:1005400018F40E945002F3CFCE010E943E021E8298
:10055000CE010E9471028CE291E00E9453028F2D25
:1005600080640E94490208E110E0D501C401002E18
:1005700004C0B695A795979587950A94D2F70E94DF
:10058000490208501109083F8FEF180771F785E9F4
:10059000FF2021F028E087E8F2128FEF0E94490245
:1005A00010E00E9450028A8787FF04C01F3F11F0AD
:1005B0001F5FF7CFDF91CF911F910F91FF90BF90F9
:1005C000AF909F908F900895AF92BF92CF92DF929D
:1005D000EF92FF920F931F93CF93DF93EC0169018A
:1005E000C801820F931F8130924050F58E8188237D
:1005F00079F088819981AA81BB8184179507A60724
:10060000B70731F48F819885C816D90608F042C023
:10061000488359836A837B838B85833039F089E0F3
:10062000440F551F661F771F8A95D1F79A01AB01BA
:1006300061E1CE010E948702882389F083E08D83E7
:10064000CE010E943E0280E0DF91CF911F910F9179
:10065000FF90EF90DF90CF90BF90AF9008950E94F1
:100660002C025B010E9450028A878F3F69F40E942E
:100670002C026A197B096D327140A0F38FE08D83E3
:10068000CE010E943E02DCCF8E3F89F418861F8285
:1006900081E08E838F8198858C159D0550F40E9492
:1006A00050028F819885019698878F83F3CF8DE0D4
:1006B000E6CF6701E00EF11E0E945002F601819321
:1006C0006F01EE15FF05C1F78F819885080F191F7F
:1006D00018870F838985882319F001151240A0F02F
:1006E0008E81882389F08F8198859C012F5F3F4FF1
:1006F00038872F838230924018F40E945002F3CF43
:10070000CE010E943E021E8281E09ECFEF92FF92B8
:100710000F931F93CF93DF93EC01790182E1411591
:1007200051056105710599F08B85833039F089E0B9
:10073000440F551F661F771F8A95D1F79A01AB01A9
:1007400068E1CE010E948702882319F084E08D833E
:1007500030C08EEF0E94490287018EEFF81AF8012F
:1007600081918F010E9449020E151F05C1F78FEF7D
:100770000E9449028FEF0E9449020E9450028A871C
:100780008F71853089F488E592E00E9453028823B6
:10079000A9F020E030E0A9016DE0CE010E948702BF
:1007A000882371F084E1D3CF81E18D83CE010E9453
:1007B0003E02CE010E943E0280E00AC085E1C7CF22
:1007C0000E9450028111EECFCE010E943E0281E0D4
:1007D000DF91CF911F910F91FF90EF900895CF93EC
:1007E000DF9380919E018823A9F1C091AF03D0913E
:1007F000B00340910001509101016091020170919C
:1008000003012FEA31E0CE010E948603811104C06A
:1008100080E0DF91CF91089540919F015091A00118
:100820006091A1017091A201411551056105710509
:1008300079F02FEA31E0CE010E948603882341F34C
:1008400010929F011092A0011092A1011092A2019A
:1008500010929E0181E0DDCF8F929F92AF92BF9266
:10086000EF92FF920F931F93CF934B015C01C42F24
:100870008091000190910101A0910201B0910301CA
:1008800088159905AA05BB0549F10E94EF0381115E
:100890000BC080E0CF911F910F91FF90EF90BF9020
:1008A000AF909F908F9008958FEAE82E81E0F82E08
:1008B00000E012E030E020E0B501A4018091AF0338
:1008C0009091B0030E94E402882319F38092000102
:1008D00090920101A0920201B092030140919E0109
:1008E0004C2B40939E0181E0D5CF8F929F92AF9287
:1008F000BF92CF92DF92EF92FF92CF9320E534E048
:100900003093B0032093AF03882309F46DC040E017
:1009100060E070E0CB010E942C0481110BC080E0EC
:10092000CF91FF90EF90DF90CF90BF90AF909F90CE
:100930008F90089580916D038F7789F78091790367
:1009400090917A03A0917B03B0917C03843691054A
:10095000A105B10520F3C0907503D0907603E09017
:100960007703F0907803C114D104E104F104B9F2E3
:1009700040E0C701B6010E942C04882381F28091D7
:10098000BA019091BB018115924049F6A091BF0137
:10099000AA2329F26091BD017091BE016115710514
:1009A00009F4BDCF2091BC01222309F4B8CFA09354
:1009B0006E042093600490E080E030E0E1E0F0E03D
:1009C000C82FAF01082E02C0440F551F0A94E2F74A
:1009D0002417350769F041E0480F019689309105E9
:1009E00079F7409369049BCFC12CD12C7601C0CFFD
:1009F000809369042091C5013091C60150E040E028
:100A00002115310541F42091D3013091D401409159
:100A1000D5015091D6012093610430936204409334
:100A200063045093640446015701860E971EA11C6F
:100A3000B11C80926F0490927004A0927104B092E5
:100A40007204E091C001F091C101F0937504E0934C
:100A50007404B0E00E94FD13DC01CB01880D991DE8
:100A6000AA1DBB1D8093760490937704A09378040D
:100A7000B093790425E0EE0FFF1F2A95E1F7E150CE
:100A8000FE4FEF2FFF27E6958E0F9F1FA11DB11D73
:100A900080936A0490936B04A0936C04B0936D04EC
:100AA0008090C2019090C301B12CA12C81149104BB
:100AB00041F48090CF019090D001A090D101B090EE
:100AC000D201C81AD90AEA0AFB0AC80CD91CEA1CC6
:100AD000FB1C04C0F694E794D794C794CA95D2F748
:100AE000C0926504D0926604E0926704F0926804B4
:100AF00085EFC8168FE0D806E104F10428F48CE0F5
:100B00008093730481E00CCF80E125EFC2162FEFB4
:100B1000D206E104F104A0F38091DB019091DC01A5
:100B2000A091DD01B091DE0180937604909377046B
:100B3000A0937804B093790480E2E2CF4F925F9261
:100B40006F927F928F929F92AF92BF92CF92DF92DD
:100B5000EF92FF920F931F93CF93DF93EC014230FC
:100B600051056105710590F480E0DF91CF911F91EF
:100B70000F91FF90EF90DF90CF90BF90AF909F903C
:100B80008F907F906F905F904F90089589859A85A0
:100B9000AB85BC850196A11DB11D84179507A607DD
:100BA000B70710F3CB88DC88ED88FE888F89803109
:100BB00009F042C0BB27A72F962F852F4801590166
:100BC0002A013B01C80ED91EEA1EFB1E80910001BE
:100BD00090910101A0910201B0910301C816D906BC
:100BE000EA06FB0699F58F898031C1F5B301A201B0
:100BF000552766277727440F551F41555E4FFA0149
:100C00009182808280919E01816080939E018A8979
:100C1000823080F08D819E81AF81B8858C0D9D1DC5
:100C2000AE1DBF1D80939F019093A001A093A101D1
:100C3000B093A20181E099CFDB01CA01E7E0B6954C
:100C4000A79597958795EA95D1F7B8CF40E0C7016A
:100C5000B6010E942C048111C6CF86CFB301A20138
:100C60004F77552766277727440F551F440F551F89
:100C700041555E4FFA0180829182A282B382C2CF37
:100C80008F929F92AF92BF92CF92DF92EF92FF929C
:100C90000F931F93CF93DF93FC0181859285A385EA
:100CA000B4850196A11DB11D84179507A607B70746
:100CB00070F480E0DF91CF911F910F91FF90EF9042
:100CC000DF90CF90BF90AF909F908F9008958388D2
:100CD0009488A588B6888789803189F5BB27A72F96
:100CE000962F852FE9016A017B018F01BC01CD019F
:100CF000680D791D8A1D9B1D809000019090010157
:100D0000A0900201B090030186169706A806B906C6
:100D100001F5F8018789803111F5DD24EE24FF24E7
:100D2000F601EE0FFF1FE155FE4F80819181B0E08B
:100D3000A0E088839983AA83BB8381E0BBCFDB01DA
:100D4000CA01C7E0B695A79597958795CA95D1F73B
:100D5000C9CF40E00E942C048111DBCFAACFE894D8
:100D6000C7F8DD24EE24FF24F601EE0FFF1FEE0F7F
:100D7000FF1FE155FE4F80819181A281B381BF7039
:100D8000D8CF4F925F926F927F92AF92BF92CF92E5
:100D9000DF92EF92FF920F931F93CF93DF9300D0D8
:100DA00000D0CDB7DEB78C0149835A836B837C8337
:100DB0005901C12CD12C7601412C82E0582E612C96
:100DC000712C49815A816B817C819E012F5F3F4F3D
:100DD000C8010E944006882339F1F8018585A301E6
:100DE000920104C0220F331F441F551F8A95D2F76A
:100DF000DA01C901C80ED91EEA1EFB1E49815A81BB
:100E00006B817C818789803111F188EF9FEFAFEF93
:100E1000BFE0481759076A077B0798F2F501C082BF
:100E2000D182E282F38281E00F900F900F900F90B9
:100E3000DF91CF911F910F91FF90EF90DF90CF90B6
:100E4000BF90AF907F906F905F904F90089588EF24
:100E50009FEFA0E0B0E0DDCFCF93DF93FC012581D1
:100E6000222321F080E0DF91CF910895EC01809161
:100E70007304803159F582E08583178A108E118EB4
:100E8000128E8091740490917504B0E0A0E025E08A
:100E9000880F991FAA1FBB1F2A95D1F7838B948BAC
:100EA000A58BB68B8CE594E09C8F8B8F81E08C8337
:100EB0001E821F82188619861A861B861C861D862E
:100EC0001E861F86188A198A1A8ACDCF803251F65B
:100ED00083E0858340917604509177046091780493
:100EE00070917904478B508F618F728F9F012D5EB7
:100EF0003F4F8CE594E00E94C1068111D3CFB2CF61
:100F00008F929F92AF92BF92CF92DF92EF92FF9219
:100F10000F931F93CF93DF93EC018D8181110EC04E
:100F200080E0DF91CF911F910F91FF90EF90DF90C4
:100F3000CF90BF90AF909F908F9008950B891C89A0
:100F40002D893E89041715072607370748F34A01FC
:100F50005B01823031F48A869B86AC86BD8681E057
:100F6000E0CF81149104A104B10449F41E821F82D0
:100F7000188619861A861B861C861D86F0CF0A8560
:100F80001B852C853D85EB8DFC8D858590E0099634
:100F9000B901A8014150510961097109082E04C025
:100FA00076956795579547950A94D2F77501640130
:100FB000E1E0CE1AD108E108F10804C0F694E79404
:100FC000D794C7948A95D2F7C416D506E606F706D5
:100FD00020F0012B022B032B11F58F89988DA98D01
:100FE000BA8D8E839F83A887B9878E010A5F1F4FB2
:100FF000C114D104E104F10409F4ADCF4E815F8145
:101000006885798598018B8D9C8D0E94400691E0C2
:10101000C91AD108E108F1088111EACF81CFC41AB9
:10102000D50AE60AF70AE1CF3F924F925F926F929C
:101030007F928F929F92AF92BF92CF92DF92EF9268
:10104000FF920F931F93CF93DF93CDB7DEB72C970B
:101050000FB6F894DEBF0FBECDBF5C01DC015B961E
:101060008D909C905C9716964D905D906D907C90C5
:101070001997411451046104710409F468C0BFEF69
:101080004B1A5B0A6B0A7B0A312CF401818592852D
:10109000A385B4859C01AD012F5F3F4F4F4F5F4F3C
:1010A00029873A874B875C87730162011D821E8204
:1010B0001F821886F40181859285A385B4852D81D0
:1010C0003E814F815885281739074A075B0708F08A
:1010D00056C089859A85AB85BC858C159D05AE0566
:1010E000BF0550F482E0C82ED12CE12CF12C92E007
:1010F000492E512C612C712C9E012F5F3F4FB7015F
:10110000A601C4010E9440068823C9F189819A8101
:10111000AB81BC81892B8A2B8B2B09F126013701EE
:101120009FEF491A590A690A790A2D813E814F8138
:1011300058852F5F3F4F4F4F5F4F2D833E834F8327
:1011400058873FEFC31AD30AE30AF30AB3CFF40177
:1011500040805180628073803324339496CFC414CE
:10116000D504E604F70409F70FEF1FEF2FEF3FE078
:10117000B701A601C4010E949E05811119C080E03B
:101180002C960FB6F894DEBF0FBECDBFDF91CF9186
:101190001F910F91FF90EF90DF90CF90BF90AF9095
:1011A0009F908F907F906F905F904F903F900895A9
:1011B000F5014681578160857185411551056105AD
:1011C000710539F097018601C4010E949E058823AC
:1011D000B1F2D5011696CD92DD92ED92FC9219975F
:1011E000332051F0D701C6010196A11DB11DF401B4
:1011F00080839183A283B383F5018789908DA18D2C
:10120000B28D892B8A2B8B2B39F4C78AD08EE18E35
:10121000F28E84818068848381E0B2CFCF93DF93A4
:10122000EC018D81882389F18C8187FF2AC06E852E
:101230007F858889998941E00E942C04882329F1BF
:10124000EA8980E2E89FF0011124E155FE4F3097D2
:10125000E1F08D81823040F48B899C89AD89BE8913
:10126000848F958FA68FB78F8F89988D938F828F5C
:101270008F89988DA98DBA8DB58BA48B8C818F7732
:101280008C83DF91CF910C94EF0380E0DF91CF91BD
:101290000895CF93DF93EC010E940E09882311F08B
:1012A0001D8281E0DF91CF9108952F923F924F925E
:1012B0005F926F927F928F929F92AF92BF92CF92E6
:1012C000DF92EF92FF920F931F93CF93DF9300D0A3
:1012D00000D0CDB7DEB78C015B011A01DC01159699
:1012E0008C911597813009F0C8C014968C9181FFBC
:1012F000C4C082FDAEC06101D8011A964D915D91C6
:101300006D917C911D97C114D10409F429C15B969C
:101310008D919C915C97FC0174802FEF270D2A0121
:101320003B0139E076946794579447943A95D1F706
:10133000722E74207A01F1E0FF22711020C0E114B6
:10134000F104E9F416964D915D916D917C91199798
:10135000411551056105710509F098C057968D91A9
:101360009D910D90BC91A02D0097A105B10509F0AC
:10137000AFC0C8010E941408882309F47EC080E031
:1013800092E08E199F0946018C159D0508F44C01C9
:10139000D8015B964D915C915C9716968D919D91CD
:1013A0000D90BC91A02D0297A109B109FA012585E4
:1013B00004C0880F991FAA1FBB1F2A95D2F7468524
:1013C000578560897189840F951FA61FB71F9C01DF
:1013D000AD01270D311D411D511D29013A01811417
:1013E00032E0930609F07AC08091000190910101EA
:1013F000A0910201B091030184159505A605B705DA
:1014000059F48FEF9FEFDC0180930001909301016D
:10141000A0930201B09303019501B301A201809151
:10142000AF039091B0030E948603882331F19EEFB1
:10143000B91AC818D908F80182859385A485B5859D
:10144000880D991DA11DB11D82879387A487B5873B
:1014500053CFF801438954896589768982859385BC
:10146000A485B585481759076A077B0709F443CF58
:10147000C8010E94800781113ECF81E090E0D80131
:1014800013969C938E93129780E007C09E012F5F66
:101490003F4F0E944006811102C090E077C08981D1
:1014A0009A81AB81BC81F801238D348DF9012789A4
:1014B00048EF5FEF60E070E0203121F048EF5FEF30
:1014C0006FEF7FE084179507A607B70708F051CFA5
:1014D000F80186839783A087B18751CFE114F10487
:1014E00091F5D8011A964D915D916D917C911D9762
:1014F00053968D919D910D90BC91A02D4817590741
:101500006A077B0700F10E94EF03882309F4B5CF37
:101510004092000150920101609202017092030119
:1015200080919E01816080939E01970121553E4FDD
:10153000D501C901880D991DF9018E179F0759F032
:101540004D914193FACF41E0C301B2010E942C04B6
:101550008111EBCF92CF821B930BA80EB91E69CFDE
:10156000F80183899489A589B68984179507A60708
:10157000B70738F48481438B548B658B768B8068F6
:101580008483F801848183FD18C0C1010F900F90FE
:101590000F900F90DF91CF911F910F91FF90EF90DF
:1015A000DF90CF90BF90AF909F908F907F906F9083
:1015B0005F904F903F902F900895C8010E940E09B0
:1015C000882309F45ACFE1CFCF93DF931F92CDB791
:1015D000DEB7698341E050E0BE016F5F7F4F0E943C
:1015E00055090F90DF91CF910895FC01DB01129610
:1015F0008D919C9113979383828382E391E09183F1
:10160000808314968C911497848315968C911597EA
:10161000858316964D915D916D917C9119974683C6
:101620005783608771871A964D915D916D917C917A
:101630001D9742875387648775871E964D915D91EC
:101640006D917C91519746875787608B718B52962D
:101650008C915297828B53964D915D916D917C91B7
:101660005697438B548B658B768B57964D915D9136
:101670006D917C915A97478B508F618F728F5B96DB
:101680008D919C91948F838F08950895FC01818D95
:10169000928D009711F00C940E090895DC01599673
:1016A000ED91FC913097B9F083899489A589B68929
:1016B0004285538564857585841B950BA60BB70BF6
:1016C000811520E89207A105B10538F08FEF9FE75B
:1016D000A0E0B0E0089590E080E00895CF93DF931C
:1016E000EC01E98DFA8D309749F481E090E09B831D
:1016F0008A8390E080E0DF91CF9108951382128277
:10170000898D9A8D0E945509E98DFA8D2281338148
:10171000232B59F7F0CFCF93DF931F92CDB7DEB7CE
:101720006983DC01ED91FC910280F381E02D41E0C1
:1017300050E0BE016F5F7F4F09950F90DF91CF9111
:1017400008952F923F924F925F926F927F928F9265
:101750009F92AF92BF92CF92DF92EF92FF920F9340
:101760001F93CF93DF9300D01F92CDB7DEB7FC015C
:101770008581811118C08FEF9FEF0F900F900F9010
:10178000DF91CF911F910F91FF90EF90DF90CF905D
:10179000BF90AF909F908F907F906F905F904F9091
:1017A0003F902F900895848180FFE5CF438954892D
:1017B0006589768982859385A485B585312C212C10
:1017C000481759076A077B0719F022242394312C04
:1017D0006F012101CE0101963C01DF011696BB830A
:1017E000AA834114510409F4C5C0F601428553850A
:1017F000648575854A01F1E09F22D6015B968D9143
:101800009C915C978A019B01E9E036952795179595
:101810000795EA95D1F71596EC91E230E9F5FC01D0
:10182000628D738D848D958D600F711F821F931F44
:10183000A12C22E0B22EA818B9084A145B0408F4BF
:101840005201F601248126FD04C0A114F2E0BF0676
:1018500071F4009100011091010120910201309179
:101860000301061717072807390709F05EC040E093
:101870000E942C04882309F47ECFC40181559E4F19
:10188000D3019C012A0D3B1DFC012E173F0709F4D3
:101890006CC041914D93F9CFDC011496BC90BA9481
:1018A000B0228114910479F4B1100DC0452B462B60
:1018B000472B69F5F6018789908DA18DB28D8683BE
:1018C0009783A087B187D6015B96ED91FC915C97D9
:1018D00016966D917D918D919C9119976250710929
:1018E00081099109258504C0660F771F881F991FFC
:1018F0002A95D2F70685178520893189600F711FD7
:10190000821F931F6B0D711D811D911D91CFD601FB
:1019100016964D915D916D917C9119972A813B812D
:101920000E9440068111CFCF26CF7301850194011B
:10193000AB01BC018091AF039091B0030E94E4021F
:10194000882309F418CF6A0C7B1CF60182859385E5
:10195000A485B5858A0D9B1DA11DB11D8287938726
:10196000A487B5874A185B083CCF281B390B620E49
:10197000731EEBCF2A94232809F0FDCE898190E0D5
:10198000FCCEFC01818D928D009711F00C94A10B7F
:101990008FEF9FEF08950F931F93CF93DF93EC0189
:1019A000898D9A8D10E000E0009799F00E94A10BBC
:1019B0008C010F3F100769F0898D9A8DFC014285DB
:1019C00053856485758541505109610971090E94EB
:1019D0008007C801DF91CF911F910F91089590E08A
:1019E00080E00895CF93DF93EC018881998100977F
:1019F00011F00E94F014198218821D821C821B8231
:101A00001A82DF91CF910895FB0101900020E9F740
:101A10003197AF01461B570BDC01ED91FC91028021
:101A2000F381E02D0994CF93DF93BC0181EB93E028
:101A30000E94040DEC016AE371E081EB93E00E94E7
:101A4000040D8C0F9D1FDF91CF9108950F931F936D
:101A5000CF93DF93EC0188819981009759F02A8117
:101A60003B812617370730F081E0DF91CF911F913E
:101A70000F9108958B016F5F7F4F0E94791500973A
:101A800059F0998388831B830A832C813D81232B02
:101A900059F7FC011082E8CF80E0E7CFEF92FF9288
:101AA0000F931F93CF93DF93EC017B018A01BA015F
:101AB0000E94260D81110BC0CE010E94F20CCE01B6
:101AC000DF91CF911F910F91FF90EF9008951D83AB
:101AD0000C83B701888199810E944C16F0CFCF9377
:101AE000DF93EC01FB018617970749F06081718154
:101AF0006115710541F0448155810E944E0DCE0162
:101B0000DF91CF9108950E94F20CF9CFCF92DF922E
:101B1000EF92FF921F93CF93DF93EC0180E2689FD7
:101B2000F0011124E155FE4F9385917161F0842FEE
:101B3000827449F080E0DF91CF911F91FF90EF9088
:101B4000DF90CF900895142F6A8B809100019091BF
:101B50000101A0910201B09103018E879F87A88B9C
:101B6000B98BC488D588F12CE12C7601DD24CC24F6
:101B7000CF8AD88EE98EFA8E828D938DB0E0A0E068
:101B8000AC01BD014C295D296E297F294F8B588FEF
:101B9000698F7A8F83858871B1F4848D958DA68D38
:101BA000B78D8B8B9C8BAD8BBE8B81E08D831F7033
:101BB0001C831E821F82188619861A861B861C8625
:101BC0001D8681E0B8CF803109F0B4CF9E012D5E33
:101BD0003F4F8B8D9C8D0E94C106882309F4AACFAC
:101BE00084E0E4CF3F924F925F926F927F928F9208
:101BF0009F92AF92BF92CF92DF92EF92FF920F939C
:101C00001F93CF93DF93CDB7DEB72B970FB6F89422
:101C1000DEBF0FBECDBF7C01FE013196CE010C961A
:101C20006F0130E23193E817F907E1F7DA0130E0AC
:101C300087E09D91B92E992309F43CC09E32F1F4BE
:101C40008A30C9F480E02B960FB6F894DEBF0FBE41
:101C5000CDBFDF91CF911F910F91FF90EF90DF905B
:101C6000CF90BF90AF909F908F907F906F905F903C
:101C70004F903F90089538E08AE0DBCFE8E6F0E04F
:101C80004491442321F031969413FACFDBCF83178C
:101C9000C8F24FED490F4E35A8F64FE9490F4A31CA
:101CA00018F440EEB42EB90EF601E30FF11DB08228
:101CB0003F5FBFCF8981803229F2322E8B01DB0159
:101CC0005B968D919C915C97F701948F838F16960C
:101CD0001D921D921D921C921997FB01128613866C
:101CE00014861586F80182859385A485B585438978
:101CF00054896589768984179507A607B70708F080
:101D00004DC025E0B695A795979587952A95D1F76B
:101D1000F82FFF70AF2ED80115968C91823008F401
:101D200091CFC8010E94A10B97FD8CCFF80182854D
:101D30009385A485B5854F96A11DB11D8287938794
:101D4000A487B587F0E2AF9EB001112461557E4FA4
:101D50006115710509F476CFDB018C91882341F080
:101D6000853E09F061C0BB2029F0BB24B394BACFF3
:101D7000B1100EC0F701A28A80910001909101017B
:101D8000A0910201B091030186879787A08BB18B48
:101D9000DB018C918111E9CFBB24B394832D827137
:101DA000823109F04FCFBB2009F44CC0F7016685A2
:101DB00077858089918941E00E942C04882309F469
:101DC00041CFD70152968C91B0E28B9FC001112474
:101DD00081559E4F009709F435CFFC013A9626E1D4
:101DE000DF011D922A95E9F72BE0F601DC01019055
:101DF0000D922A95E1F721E238E2FC01318B208B2C
:101E000040E058E057874687338B228B318F208FF5
:101E1000578B468B0E94EF03882309F413CF432D81
:101E2000D70152966C910AC04BE050E0C6010E9467
:101E30003616892B09F056CF432D6A2DC7010E9413
:101E4000860D01CFF8018581823009F4FBCEC801EF
:101E50000E941408882309F4F5CED8015B96ED9111
:101E6000FC915C9716968D909D90AD90BC901997C3
:101E7000B2E08B1A9108A108B108858504C0880CCE
:101E8000991CAA1CBB1C8A95D2F786859785A089C8
:101E9000B189880E991EAA1EBB1E848124013501BA
:101EA000480E511C611C711C84149504A604B704CF
:101EB00001F1E1E04E1A5108610871080E94EF0338
:101EC000882309F4BFCEEFEAF1E011928FEA93E0A4
:101ED0008E179F07D1F74092000150920101609246
:101EE00002017092030180919E01816080939E01A6
:101EF000DBCFD8015B96ED91FC91258580E092E0E7
:101F0000A0E0B0E004C0880F991FAA1FBB1F2A954C
:101F1000D2F7F8014389548965897689840F951F22
:101F2000A61FB71F838B948BA58BB68BD7015296B8
:101F30001C928FEA91E051CFEF92FF920F931F9383
:101F4000CF93DF93EC017B018A011B821A8288EE1A
:101F500093E0A0E0B0E08C839D83AE83BF838EE0EE
:101F600091E0998388838DE190E00E9454149A8FC8
:101F7000898F009779F02DE1F701DC0101900D9236
:101F80002A95E1F74CE050E0B801CE010C960E9492
:101F90005316188EDF91CF911F910F91FF90EF9004
:101FA00008951F920F920FB60F9211242F933F9313
:101FB0004F935F936F937F938F939F93AF93BF9351
:101FC000EF93FF9381EB93E00E942C01FF91EF913F
:101FD000BF91AF919F918F917F916F915F914F9141
:101FE0003F912F910F900FBE0F901F9018951F9249
:101FF0000F920FB60F9211242F938F939F93EF930D
:10200000FF93E091C103F091C2038081E091C70387
:10201000F091C80382FD1BC090818091CA038F5F3D
:102020008F732091CB03821741F0E091CA03F0E057
:10203000EF54FC4F958F8093CA03FF91EF919F91CE
:102040008F912F910F900FBE0F901F901895808148
:10205000F4CF1F920F920FB60F9211242F933F933C
:102060008F939F93AF93BF938091A4019091A5010B
:10207000A091A601B091A7013091A30123E0230F05
:102080002D3758F50196A11DB11D2093A301809312
:10209000A4019093A501A093A601B093A7018091FC
:1020A000A8019091A901A091AA01B091AB0101965C
:1020B000A11DB11D8093A8019093A901A093AA012D
:1020C000B093AB01BF91AF919F918F913F912F91B1
:1020D0000F900FBE0F901F90189526E8230F0296C1
:1020E000A11DB11DD2CFE1EBF3E01382128288EE85
:1020F00093E0A0E0B0E084839583A683B78380E279
:1021000091E09183808385EC90E09587848784ECCF
:1021100090E09787868780EC90E0918B808B81ECB4
:1021200090E0938B828B82EC90E0958B848B86EC95
:1021300090E0978B868B118E128E138E148EEEE4A8
:10214000F4E080E580831182E0E5F4E015821682F8
:102150001186138682E090E0A0E0B0E08487958746
:10216000A687B78713A215A614A682E391E093A7CA
:1021700082A717A60895CF93DF93CDB7DEB7CE57CA
:10218000D1090FB6F894DEBF0FBECDBF789484B5E9
:10219000826084BD84B5816084BD85B5826085BD63
:1021A00085B5816085BD80916E00816080936E00F1
:1021B00010928100809181008260809381008091E3
:1021C0008100816080938100809180008160809394
:1021D00080008091B10084608093B1008091B00054
:1021E00081608093B00080917A00846080937A004F
:1021F00080917A00826080937A0080917A00816079
:1022000080937A0080917A00806880937A0010929F
:10221000C100E091C103F091C20382E08083E091AC
:10222000BD03F091BE031082E091BF03F091C003A3
:102230008FEC80831092C903E091C503F091C6032F
:1022400086E08083E091C303F091C40380818061C4
:102250008083E091C303F091C40380818860808310
:10226000E091C303F091C403808180688083E09192
:10227000C303F091C40380818F7D808380917F04AC
:10228000882321F08AE794E00E94490910925B04B8
:1022900010925904109256041092550484E08093D1
:1022A00054040E942C028B01809154040E948F00E0
:1022B00061E0809154040E94BB01FFB6F8948091C4
:1022C000AC01811124C0EAEAF0E08491EEEBF0E089
:1022D0009491E82FF0E0EE0FFF1FEA56FF4FA59113
:1022E000B491EC91E92321F461E08AE00E94BB0102
:1022F0008AE00E948F008CB580618CBD8CB58064B3
:102300008CBD8DE00E948F008BE00E948F00809139
:10231000AC018F5F8093AC01FFBE82E580934E04D9
:1023200010924F0480914E0490914F040E946E02CF
:102330005AE0F52E8FEF0E944902FA94F110FACF7D
:1023400080E594E00E94710220E030E0A90160E0A5
:1023500080E594E00E948702F82E80935A0421E0E1
:10236000821789F00E942C02601B710B613D77403F
:1023700058F381E08093550480E594E00E943E028A
:1023800082E591E07CC02AEA31E040E050E068E07C
:1023900080E594E00E94870282FF2AC0F0925B04ED
:1023A00080915B04C12CD12C7601823029F4C12CA0
:1023B000D12CE12C30E4F32E20E030E0A90167E3DA
:1023C00080E594E00E948702A701960169E280E51A
:1023D00094E00E94870280935A048823D1F00E94DF
:1023E0002C02601B710B613D774030F388E0C2CF57
:1023F00044E0F42E0E94500280935A04FA94F110A3
:10240000F9CF8A3A11F082E0B5CF82E080935B0485
:10241000C7CF80915B048230D1F420E030E0A90185
:102420006AE380E594E00E948702882311F086E049
:10243000A1CF0E945002807C803C19F483E08093FD
:102440005B040E9450020E9450020E94500280E5EC
:1024500094E00E943E0280E580934E0410924F0467
:1024600081E00E947504882309F45AC18AE794E048
:102470000E942C07882309F483CF8DE391E00E940A
:10248000130D8E010F5F1F4F92E3292E91E0392E1D
:1024900028EE822E23E0922EA12CB12C8091AD014A
:1024A0009091AE011F8E1E8E19A218A21BA21AA215
:1024B0004AE0B8010E94C813F80101900020E9F732
:1024C0003197AF01401B510BB801CE014E960E94CF
:1024D0004E0D1CAE1BAE1EAE1DAE21961FAE1EAE27
:1024E00021974CE050E06FE671E0CE01CB960E9460
:1024F0004E0D1A8219821C821B821E821D82BE0111
:10250000655C7F4FC8010E946F0DCE8CDF8CC114BB
:10251000D10409F40CC1EAA0FBA0E114F104B1F06C
:102520008D819E81E80EF91EB701C8010E94260D1B
:10253000882309F4FCC029813A818D819E81B601EE
:10254000820F931F0E944C16FE82ED82EB961FAE07
:102550001EAEEB97ED961FAE1EAEED97EF961FAE3B
:102560001EAEEF97B801CE0187589F4F0E946F0DA6
:1025700089819A810E94F0148BAD9CAD0E94F01469
:102580008E8D9F8D0E94F014E5961FAE1EAEE597CE
:10259000E7961FAE1EAEE797E9961FAE1EAEE9970F
:1025A000BE0167587F4FCE018D589F4F0E946F0D1F
:1025B0001C821B823A8229821E82C8010E942C073B
:1025C000B801CE01CB960E94F50A19A218A23F8E3F
:1025D0002E8E1BA221968FAD21978111ACC06C96D7
:1025E0001FAE1EAE6C97A0968CAE9DAEAEAEBFAECB
:1025F000A0978EE091E06A969FAF8EAF6A97E396C0
:102600001FAE1EAEE397A5961FAEA597E396EEAD5F
:10261000FFADE397309709F4B6C08581882309F4AC
:10262000B2C0E9964EAD5FADE997E5966EAD7FAD70
:10263000E597CE01885A9F4F0E946E0B6AE371E0C6
:10264000CE01885A9F4F0E94040DE3968EAD9FAD38
:10265000E397009761F00E944909E3968EAD9FAD24
:10266000E3970E94F014E3961FAE1EAEE397E9963F
:102670004EAD5FADE997E5966EAD7FADE59781EB29
:1026800093E00E94AE006AE371E081EB93E00E9468
:10269000040DE5968EAD9FADE5970E94F0148091F4
:1026A000AD019091AE0101969093AE018093AD0182
:1026B0000E9407022B013C0188EEC82E83E0D82E31
:1026C000E12CF12C0E94070264197509860997090B
:1026D000683E734081059105A8F391E0C91AD108BD
:1026E000E108F10828EE420E23E0521E611C711C25
:1026F000C114D104E104F10429F7EB968EAD9FAD2E
:10270000EB970E94F01480E090E0892B09F4C6CE8C
:102710000E941801882309F4C1CE0E940000BECE99
:1027200080E00E947504882309F42ACE9FCEC80158
:102730000E94F20C0BCF27E14CE751E0BE01655C33
:102740007F4FCE014E960E94F20D882309F447CFA9
:10275000CE01CB960E94490949A95AA96BA97CA927
:10276000CE014E960E948007BE01625E7F4FC80177
:102770000E94F50A4CE751E0B801CE01885A9F4FFC
:102780000E949C0F43CF85E891E00E94130D81CFFA
:10279000BB274A3031F4992322F4BDE2909581950C
:1027A0009F4F0C94D413BB27FB015527AA27880FF2
:1027B000991FAA1FA41710F0A41B83955051B9F7B5
:1027C000A05DAA3308F0A95DA193009779F7B11134
:1027D000B1931192CB010C94ED13DC01FC01672F36
:1027E00071917723E1F7329704C07C916D937083E8
:1027F0006291AE17BF07C8F308950E943F14A59FCA
:10280000900DB49F900DA49F800D911D11240895EB
:102810002F923F924F925F926F927F928F929F92F0
:10282000AF92BF92CF92DF92EF92FF920F931F93DE
:10283000CF93DF93CDB7DEB7CA1BDB0B0FB6F8948F
:10284000DEBF0FBECDBF09942A88398848885F84CF
:102850006E847D848C849B84AA84B984C884DF8040
:10286000EE80FD800C811B81AA81B981CE0FD11D24
:102870000FB6F894DEBF0FBECDBFED010895A29F45
:10288000B001B39FC001A39F700D811D1124911D44
:10289000B29F700D811D1124911D0895EE0FFF1F31
:1028A0000590F491E02D09940F931F93CF93DF933C
:1028B0008230910510F482E090E0E0919B04F09169
:1028C0009C0430E020E0B0E0A0E0309799F42115BE
:1028D000310509F44AC0281B390B24303105D8F5DD
:1028E0008A819B816115710589F1FB019383828344
:1028F000FE0111C04081518102811381481759079F
:10290000E0F04817590799F4109761F012960C936C
:10291000129713961C933296CF01DF91CF911F919E
:102920000F91089500939B0410939C04F4CF2115FC
:10293000310551F04217530738F0A901DB019A0124
:10294000BD01DF01F801C1CFEF01F9CF90939C04E5
:1029500080939B04CDCFFE01E20FF31F81939193EF
:102960002250310939832883D7CF2091990430919F
:102970009A04232B41F420910601309107013093F2
:102980009A042093990420910401309105012115A6
:10299000310541F42DB73EB740910801509109012E
:1029A000241B350BE0919904F0919A04E217F30788
:1029B000A0F42E1B3F0B2817390778F0AC014E5FAF
:1029C0005F4F2417350748F04E0F5F1F50939A044E
:1029D00040939904819391939FCFF0E0E0E09CCFE6
:1029E000CF93DF930097E9F0FC01329713821282B4
:1029F000A0919B04B0919C04ED0130E020E0109781
:102A0000A1F420813181820F931F2091990430918C
:102A10009A042817390709F061C0F0939A04E093EB
:102A20009904DF91CF910895EA01CE17DF07E8F509
:102A30004A815B819E0141155105B1F7E901FB8394
:102A4000EA8349915991C40FD51FEC17FD0761F432
:102A5000808191810296840F951FE9019983888373
:102A6000828193819B838A83F0E0E0E012968D91CE
:102A70009C9113970097B9F52D913C911197CD0139
:102A80000296820F931F2091990430919A0428177F
:102A9000390739F6309751F510929C0410929B0437
:102AA000B0939A04A0939904BCCFD383C28340818E
:102AB0005181840F951FC817D90761F44E5F5F4F8E
:102AC00088819981480F591F518340838A819B8156
:102AD000938382832115310509F0B0CFF0939C04D4
:102AE000E0939B049ECFFD01DC01C0CF13821282D4
:102AF000D7CFB0E0A0E0EFE7F5E10C940A148C0129
:102B0000009751F4CB010E9454148C01C801CDB739
:102B1000DEB7E0E10C942614FC01E60FF71F9C01E0
:102B200022503109E217F30708F49DC0D901CD9175
:102B3000DC911197C617D70798F0C530D10530F34F
:102B4000CE0104978617970708F3C61BD70B229769
:102B5000C193D1936D937C93CF010E94F014D6CF93
:102B60005B01AC1ABD0A4C018C0E9D1EA0919B040A
:102B7000B0919C04512C412CF12CE12C109731F593
:102B80008091990490919A048815990509F05CC088
:102B90004616570608F058C080910401909105012F
:102BA000009741F48DB79EB74091080150910901FB
:102BB000841B950BE817F90708F055C0F0939A04A9
:102BC000E0939904F90171836083A0CF8D919C916A
:102BD000119712966C90129713967C901397A815E4
:102BE000B90559F56C0142E0C40ED11CCA14DB04CE
:102BF00020F1AC014A195B09DA011296159780F0B1
:102C00006282738251834083D9016D937C93E11476
:102C1000F10471F0D7011396FC93EE93129776CFDF
:102C200022968C0F9D1FF90191838083F301EFCFD2
:102C3000F0939C04E0939B0469CF4816590608F46E
:102C40002C017D01D3019ACFCB010E9454147C0149
:102C5000009749F0AE01B8010E944316C8010E94D6
:102C6000F014870153CF10E000E050CFFB01DC01EE
:102C700004C08D910190801921F441505040C8F753
:102C8000881B990B0895FB01DC0102C001900D9295
:102C900041505040D8F70895FB01DC0101900D929E
:102CA0000020E1F70895FB01DC014150504048F05D
:102CB00001900D920020C9F701C01D924150504073
:082CC000E0F70895F894FFCF3E
:102CC800FFFFFFFF00009D048000000000008B0B49
:102CD8006E0BEF0C460B4E0BC10CCB0C000000002A
:102CE8004E01AE00DB009B010C01EA00FE00000073
:102CF8000000E40AAE00EF0C450B0D0A0053442D0A
:102D08004361726420696E697469616C697A65648B
:102D18002E0053442D43617264206661696C6564BA
:102D2800206F72206973206D697373696E6700483C
:102D3800616C6C6F2057656C742023007465737424
:102D48002E637376004572726F72206F70656E69BC
:0C2D58006E67206461746166696C650040
:107E0000112484B714BE81FFF0D085E080938100F7
:107E100082E08093C00088E18093C10086E0809377
:107E2000C20080E18093C4008EE0C9D0259A86E02C
:107E300020E33CEF91E0309385002093840096BBD3
:107E4000B09BFECF1D9AA8958150A9F7CC24DD24C4
:107E500088248394B5E0AB2EA1E19A2EF3E0BF2EE7
:107E6000A2D0813461F49FD0082FAFD0023811F036
:107E7000013811F484E001C083E08DD089C08234E0
:107E800011F484E103C0853419F485E0A6D080C0E4
:107E9000853579F488D0E82EFF2485D0082F10E0AE
:107EA000102F00270E291F29000F111F8ED06801E7
:107EB0006FC0863521F484E090D080E0DECF843638
:107EC00009F040C070D06FD0082F6DD080E0C81688
:107ED00080E7D80618F4F601B7BEE895C0E0D1E017
:107EE00062D089930C17E1F7F0E0CF16F0E7DF06D8
:107EF00018F0F601B7BEE89568D007B600FCFDCFD4
:107F0000A601A0E0B1E02C9130E011968C91119780
:107F100090E0982F8827822B932B1296FA010C0160
:107F200087BEE89511244E5F5F4FF1E0A038BF0790
:107F300051F7F601A7BEE89507B600FCFDCF97BE46
:107F4000E89526C08437B1F42ED02DD0F82E2BD052
:107F50003CD0F601EF2C8F010F5F1F4F84911BD097
:107F6000EA94F801C1F70894C11CD11CFA94CF0C13
:107F7000D11C0EC0853739F428D08EE10CD085E9AC
:107F80000AD08FE07ACF813511F488E018D01DD067
:107F900080E101D065CF982F8091C00085FFFCCF94
:107FA0009093C60008958091C00087FFFCCF809118
:107FB000C00084FD01C0A8958091C6000895E0E648
:107FC000F0E098E1908380830895EDDF803219F02E
:107FD00088E0F5DFFFCF84E1DECF1F93182FE3DFCA
:107FE0001150E9F7F2DF1F91089580E0E8DFEE27F6
:047FF000FF270994CA
:027FFE00040479
:0400000300007E007B
:00000001FF
